{
  "_format": "hh-sol-artifact-1",
  "contractName": "CypherFighter",
  "sourceName": "contracts/NFT.sol",
  "abi": [
    {
      "inputs": [
        {
          "internalType": "string",
          "name": "_initBaseURI",
          "type": "string"
        },
        {
          "internalType": "string",
          "name": "_initNotRevealedURI",
          "type": "string"
        }
      ],
      "stateMutability": "nonpayable",
      "type": "constructor"
    },
    {
      "inputs": [],
      "name": "ApprovalCallerNotOwnerNorApproved",
      "type": "error"
    },
    {
      "inputs": [],
      "name": "ApprovalQueryForNonexistentToken",
      "type": "error"
    },
    {
      "inputs": [],
      "name": "ApprovalToCurrentOwner",
      "type": "error"
    },
    {
      "inputs": [],
      "name": "ApproveToCaller",
      "type": "error"
    },
    {
      "inputs": [],
      "name": "BalanceQueryForZeroAddress",
      "type": "error"
    },
    {
      "inputs": [],
      "name": "MintToZeroAddress",
      "type": "error"
    },
    {
      "inputs": [],
      "name": "MintZeroQuantity",
      "type": "error"
    },
    {
      "inputs": [],
      "name": "OwnerQueryForNonexistentToken",
      "type": "error"
    },
    {
      "inputs": [],
      "name": "TransferCallerNotOwnerNorApproved",
      "type": "error"
    },
    {
      "inputs": [],
      "name": "TransferFromIncorrectOwner",
      "type": "error"
    },
    {
      "inputs": [],
      "name": "TransferToNonERC721ReceiverImplementer",
      "type": "error"
    },
    {
      "inputs": [],
      "name": "TransferToZeroAddress",
      "type": "error"
    },
    {
      "inputs": [],
      "name": "URIQueryForNonexistentToken",
      "type": "error"
    },
    {
      "anonymous": false,
      "inputs": [
        {
          "indexed": true,
          "internalType": "address",
          "name": "owner",
          "type": "address"
        },
        {
          "indexed": true,
          "internalType": "address",
          "name": "approved",
          "type": "address"
        },
        {
          "indexed": true,
          "internalType": "uint256",
          "name": "tokenId",
          "type": "uint256"
        }
      ],
      "name": "Approval",
      "type": "event"
    },
    {
      "anonymous": false,
      "inputs": [
        {
          "indexed": true,
          "internalType": "address",
          "name": "owner",
          "type": "address"
        },
        {
          "indexed": true,
          "internalType": "address",
          "name": "operator",
          "type": "address"
        },
        {
          "indexed": false,
          "internalType": "bool",
          "name": "approved",
          "type": "bool"
        }
      ],
      "name": "ApprovalForAll",
      "type": "event"
    },
    {
      "anonymous": false,
      "inputs": [
        {
          "indexed": false,
          "internalType": "uint256",
          "name": "supply",
          "type": "uint256"
        }
      ],
      "name": "ExtraMint",
      "type": "event"
    },
    {
      "anonymous": false,
      "inputs": [
        {
          "indexed": false,
          "internalType": "bool",
          "name": "status",
          "type": "bool"
        }
      ],
      "name": "ExtraSaleStarted",
      "type": "event"
    },
    {
      "anonymous": false,
      "inputs": [
        {
          "indexed": true,
          "internalType": "address",
          "name": "previousOwner",
          "type": "address"
        },
        {
          "indexed": true,
          "internalType": "address",
          "name": "newOwner",
          "type": "address"
        }
      ],
      "name": "OwnershipTransferred",
      "type": "event"
    },
    {
      "anonymous": false,
      "inputs": [
        {
          "indexed": false,
          "internalType": "bool",
          "name": "status",
          "type": "bool"
        }
      ],
      "name": "PrivatSaleStarted",
      "type": "event"
    },
    {
      "anonymous": false,
      "inputs": [
        {
          "indexed": false,
          "internalType": "uint256",
          "name": "supply",
          "type": "uint256"
        }
      ],
      "name": "PrivateMint",
      "type": "event"
    },
    {
      "anonymous": false,
      "inputs": [
        {
          "indexed": false,
          "internalType": "uint256",
          "name": "supply",
          "type": "uint256"
        }
      ],
      "name": "PublicMint",
      "type": "event"
    },
    {
      "anonymous": false,
      "inputs": [
        {
          "indexed": false,
          "internalType": "bool",
          "name": "status",
          "type": "bool"
        }
      ],
      "name": "PublicSaleStarted",
      "type": "event"
    },
    {
      "anonymous": false,
      "inputs": [
        {
          "indexed": true,
          "internalType": "address",
          "name": "from",
          "type": "address"
        },
        {
          "indexed": true,
          "internalType": "address",
          "name": "to",
          "type": "address"
        },
        {
          "indexed": true,
          "internalType": "uint256",
          "name": "tokenId",
          "type": "uint256"
        }
      ],
      "name": "Transfer",
      "type": "event"
    },
    {
      "inputs": [],
      "name": "MAX_BATCH_SIZE",
      "outputs": [
        {
          "internalType": "uint256",
          "name": "",
          "type": "uint256"
        }
      ],
      "stateMutability": "view",
      "type": "function"
    },
    {
      "inputs": [],
      "name": "MAX_EXTRA_SUPPLY",
      "outputs": [
        {
          "internalType": "uint256",
          "name": "",
          "type": "uint256"
        }
      ],
      "stateMutability": "view",
      "type": "function"
    },
    {
      "inputs": [],
      "name": "MAX_PRIVATE_SUPPLY",
      "outputs": [
        {
          "internalType": "uint256",
          "name": "",
          "type": "uint256"
        }
      ],
      "stateMutability": "view",
      "type": "function"
    },
    {
      "inputs": [],
      "name": "MAX_PUBLIC_SUPPLY",
      "outputs": [
        {
          "internalType": "uint256",
          "name": "",
          "type": "uint256"
        }
      ],
      "stateMutability": "view",
      "type": "function"
    },
    {
      "inputs": [],
      "name": "MINT_PRIVATE_PRICE",
      "outputs": [
        {
          "internalType": "uint256",
          "name": "",
          "type": "uint256"
        }
      ],
      "stateMutability": "view",
      "type": "function"
    },
    {
      "inputs": [],
      "name": "MINT_PUBLIC_PRICE",
      "outputs": [
        {
          "internalType": "uint256",
          "name": "",
          "type": "uint256"
        }
      ],
      "stateMutability": "view",
      "type": "function"
    },
    {
      "inputs": [
        {
          "internalType": "address",
          "name": "to",
          "type": "address"
        },
        {
          "internalType": "uint256",
          "name": "tokenId",
          "type": "uint256"
        }
      ],
      "name": "approve",
      "outputs": [],
      "stateMutability": "nonpayable",
      "type": "function"
    },
    {
      "inputs": [
        {
          "internalType": "address",
          "name": "owner",
          "type": "address"
        }
      ],
      "name": "balanceOf",
      "outputs": [
        {
          "internalType": "uint256",
          "name": "",
          "type": "uint256"
        }
      ],
      "stateMutability": "view",
      "type": "function"
    },
    {
      "inputs": [],
      "name": "baseExtension",
      "outputs": [
        {
          "internalType": "string",
          "name": "",
          "type": "string"
        }
      ],
      "stateMutability": "view",
      "type": "function"
    },
    {
      "inputs": [],
      "name": "baseURI",
      "outputs": [
        {
          "internalType": "string",
          "name": "",
          "type": "string"
        }
      ],
      "stateMutability": "view",
      "type": "function"
    },
    {
      "inputs": [],
      "name": "extraSaleStarted",
      "outputs": [
        {
          "internalType": "bool",
          "name": "",
          "type": "bool"
        }
      ],
      "stateMutability": "view",
      "type": "function"
    },
    {
      "inputs": [],
      "name": "extraSaleSupply",
      "outputs": [
        {
          "internalType": "uint256",
          "name": "",
          "type": "uint256"
        }
      ],
      "stateMutability": "view",
      "type": "function"
    },
    {
      "inputs": [
        {
          "internalType": "uint256",
          "name": "tokenId",
          "type": "uint256"
        }
      ],
      "name": "getApproved",
      "outputs": [
        {
          "internalType": "address",
          "name": "",
          "type": "address"
        }
      ],
      "stateMutability": "view",
      "type": "function"
    },
    {
      "inputs": [
        {
          "internalType": "address",
          "name": "owner",
          "type": "address"
        },
        {
          "internalType": "address",
          "name": "operator",
          "type": "address"
        }
      ],
      "name": "isApprovedForAll",
      "outputs": [
        {
          "internalType": "bool",
          "name": "",
          "type": "bool"
        }
      ],
      "stateMutability": "view",
      "type": "function"
    },
    {
      "inputs": [
        {
          "internalType": "uint256",
          "name": "_count",
          "type": "uint256"
        }
      ],
      "name": "mint",
      "outputs": [],
      "stateMutability": "payable",
      "type": "function"
    },
    {
      "inputs": [
        {
          "internalType": "uint256",
          "name": "_count",
          "type": "uint256"
        }
      ],
      "name": "mintExtra",
      "outputs": [],
      "stateMutability": "payable",
      "type": "function"
    },
    {
      "inputs": [
        {
          "internalType": "uint256",
          "name": "_count",
          "type": "uint256"
        },
        {
          "internalType": "bytes32[]",
          "name": "_proof",
          "type": "bytes32[]"
        }
      ],
      "name": "mintWhitelist",
      "outputs": [],
      "stateMutability": "payable",
      "type": "function"
    },
    {
      "inputs": [],
      "name": "name",
      "outputs": [
        {
          "internalType": "string",
          "name": "",
          "type": "string"
        }
      ],
      "stateMutability": "view",
      "type": "function"
    },
    {
      "inputs": [],
      "name": "notRevealedURI",
      "outputs": [
        {
          "internalType": "string",
          "name": "",
          "type": "string"
        }
      ],
      "stateMutability": "view",
      "type": "function"
    },
    {
      "inputs": [],
      "name": "owner",
      "outputs": [
        {
          "internalType": "address",
          "name": "",
          "type": "address"
        }
      ],
      "stateMutability": "view",
      "type": "function"
    },
    {
      "inputs": [
        {
          "internalType": "uint256",
          "name": "tokenId",
          "type": "uint256"
        }
      ],
      "name": "ownerOf",
      "outputs": [
        {
          "internalType": "address",
          "name": "",
          "type": "address"
        }
      ],
      "stateMutability": "view",
      "type": "function"
    },
    {
      "inputs": [],
      "name": "privateSaleStarted",
      "outputs": [
        {
          "internalType": "bool",
          "name": "",
          "type": "bool"
        }
      ],
      "stateMutability": "view",
      "type": "function"
    },
    {
      "inputs": [],
      "name": "privateSaleSupply",
      "outputs": [
        {
          "internalType": "uint256",
          "name": "",
          "type": "uint256"
        }
      ],
      "stateMutability": "view",
      "type": "function"
    },
    {
      "inputs": [],
      "name": "publicSaleStarted",
      "outputs": [
        {
          "internalType": "bool",
          "name": "",
          "type": "bool"
        }
      ],
      "stateMutability": "view",
      "type": "function"
    },
    {
      "inputs": [],
      "name": "publicSaleSupply",
      "outputs": [
        {
          "internalType": "uint256",
          "name": "",
          "type": "uint256"
        }
      ],
      "stateMutability": "view",
      "type": "function"
    },
    {
      "inputs": [],
      "name": "renounceOwnership",
      "outputs": [],
      "stateMutability": "nonpayable",
      "type": "function"
    },
    {
      "inputs": [],
      "name": "reveal",
      "outputs": [],
      "stateMutability": "nonpayable",
      "type": "function"
    },
    {
      "inputs": [],
      "name": "revealed",
      "outputs": [
        {
          "internalType": "bool",
          "name": "",
          "type": "bool"
        }
      ],
      "stateMutability": "view",
      "type": "function"
    },
    {
      "inputs": [
        {
          "internalType": "address",
          "name": "from",
          "type": "address"
        },
        {
          "internalType": "address",
          "name": "to",
          "type": "address"
        },
        {
          "internalType": "uint256",
          "name": "tokenId",
          "type": "uint256"
        }
      ],
      "name": "safeTransferFrom",
      "outputs": [],
      "stateMutability": "nonpayable",
      "type": "function"
    },
    {
      "inputs": [
        {
          "internalType": "address",
          "name": "from",
          "type": "address"
        },
        {
          "internalType": "address",
          "name": "to",
          "type": "address"
        },
        {
          "internalType": "uint256",
          "name": "tokenId",
          "type": "uint256"
        },
        {
          "internalType": "bytes",
          "name": "_data",
          "type": "bytes"
        }
      ],
      "name": "safeTransferFrom",
      "outputs": [],
      "stateMutability": "nonpayable",
      "type": "function"
    },
    {
      "inputs": [
        {
          "internalType": "address",
          "name": "operator",
          "type": "address"
        },
        {
          "internalType": "bool",
          "name": "approved",
          "type": "bool"
        }
      ],
      "name": "setApprovalForAll",
      "outputs": [],
      "stateMutability": "nonpayable",
      "type": "function"
    },
    {
      "inputs": [
        {
          "internalType": "string",
          "name": "_newBaseURI",
          "type": "string"
        }
      ],
      "name": "setBaseURI",
      "outputs": [],
      "stateMutability": "nonpayable",
      "type": "function"
    },
    {
      "inputs": [
        {
          "internalType": "bool",
          "name": "_hasStarted",
          "type": "bool"
        }
      ],
      "name": "setExtraSaleStarted",
      "outputs": [],
      "stateMutability": "nonpayable",
      "type": "function"
    },
    {
      "inputs": [
        {
          "internalType": "bytes32",
          "name": "_merkleRootValue",
          "type": "bytes32"
        }
      ],
      "name": "setMerkleRoot",
      "outputs": [
        {
          "internalType": "bytes32",
          "name": "",
          "type": "bytes32"
        }
      ],
      "stateMutability": "nonpayable",
      "type": "function"
    },
    {
      "inputs": [
        {
          "internalType": "string",
          "name": "_notRevealedURI",
          "type": "string"
        }
      ],
      "name": "setNotRevealedURI",
      "outputs": [],
      "stateMutability": "nonpayable",
      "type": "function"
    },
    {
      "inputs": [
        {
          "internalType": "bool",
          "name": "_hasStarted",
          "type": "bool"
        }
      ],
      "name": "setPrivateSaleStarted",
      "outputs": [],
      "stateMutability": "nonpayable",
      "type": "function"
    },
    {
      "inputs": [
        {
          "internalType": "bool",
          "name": "_hasStarted",
          "type": "bool"
        }
      ],
      "name": "setPublicSaleStarted",
      "outputs": [],
      "stateMutability": "nonpayable",
      "type": "function"
    },
    {
      "inputs": [
        {
          "internalType": "bytes4",
          "name": "interfaceId",
          "type": "bytes4"
        }
      ],
      "name": "supportsInterface",
      "outputs": [
        {
          "internalType": "bool",
          "name": "",
          "type": "bool"
        }
      ],
      "stateMutability": "view",
      "type": "function"
    },
    {
      "inputs": [],
      "name": "symbol",
      "outputs": [
        {
          "internalType": "string",
          "name": "",
          "type": "string"
        }
      ],
      "stateMutability": "view",
      "type": "function"
    },
    {
      "inputs": [
        {
          "internalType": "uint256",
          "name": "tokenId",
          "type": "uint256"
        }
      ],
      "name": "tokenURI",
      "outputs": [
        {
          "internalType": "string",
          "name": "",
          "type": "string"
        }
      ],
      "stateMutability": "view",
      "type": "function"
    },
    {
      "inputs": [],
      "name": "totalSupply",
      "outputs": [
        {
          "internalType": "uint256",
          "name": "",
          "type": "uint256"
        }
      ],
      "stateMutability": "view",
      "type": "function"
    },
    {
      "inputs": [
        {
          "internalType": "address",
          "name": "from",
          "type": "address"
        },
        {
          "internalType": "address",
          "name": "to",
          "type": "address"
        },
        {
          "internalType": "uint256",
          "name": "tokenId",
          "type": "uint256"
        }
      ],
      "name": "transferFrom",
      "outputs": [],
      "stateMutability": "nonpayable",
      "type": "function"
    },
    {
      "inputs": [
        {
          "internalType": "address",
          "name": "newOwner",
          "type": "address"
        }
      ],
      "name": "transferOwnership",
      "outputs": [],
      "stateMutability": "nonpayable",
      "type": "function"
    },
    {
      "inputs": [],
      "name": "withdraw",
      "outputs": [],
      "stateMutability": "nonpayable",
      "type": "function"
    }
  ],
  "bytecode": "0x6080604052670de0b6b3a7640000600a55671bc16d674ec80000600b556005600c556002600d556000600e60006101000a81548160ff0219169083151502179055506000600e60016101000a81548160ff0219169083151502179055506000600e60026101000a81548160ff0219169083151502179055506000600e60036101000a81548160ff0219169083151502179055506040518060400160405280600581526020017f2e6a736f6e000000000000000000000000000000000000000000000000000000815250600f9080519060200190620000df929190620004ba565b5073abeb6a475623928e50c74750f4f01351c7f684ee601360006101000a81548173ffffffffffffffffffffffffffffffffffffffff021916908373ffffffffffffffffffffffffffffffffffffffff160217905550739415764da92ed2233b68e38d1a93ee042a6def5e601460006101000a81548173ffffffffffffffffffffffffffffffffffffffff021916908373ffffffffffffffffffffffffffffffffffffffff160217905550600060155560006016556000601755348015620001a657600080fd5b5060405162004f4338038062004f438339818101604052810190620001cc919062000707565b6040518060400160405280600d81526020017f43797068657246696768746572000000000000000000000000000000000000008152506040518060400160405280600481526020017f4379466900000000000000000000000000000000000000000000000000000000815250816002908051906020019062000250929190620004ba565b50806003908051906020019062000269929190620004ba565b506200027a620002d460201b60201c565b6000819055505050620002a262000296620002d960201b60201c565b620002e160201b60201c565b6001600981905550620002bb82620003a760201b60201c565b620002cc81620003d360201b60201c565b505062000874565b600090565b600033905090565b6000600860009054906101000a900473ffffffffffffffffffffffffffffffffffffffff16905081600860006101000a81548173ffffffffffffffffffffffffffffffffffffffff021916908373ffffffffffffffffffffffffffffffffffffffff1602179055508173ffffffffffffffffffffffffffffffffffffffff168173ffffffffffffffffffffffffffffffffffffffff167f8be0079c531659141344cd1fd0a4f28419497f9722a3daafe3b4186f6b6457e060405160405180910390a35050565b620003b7620003ff60201b60201c565b8060109080519060200190620003cf929190620004ba565b5050565b620003e3620003ff60201b60201c565b8060119080519060200190620003fb929190620004ba565b5050565b6200040f620002d960201b60201c565b73ffffffffffffffffffffffffffffffffffffffff16620004356200049060201b60201c565b73ffffffffffffffffffffffffffffffffffffffff16146200048e576040517f08c379a00000000000000000000000000000000000000000000000000000000081526004016200048590620007ed565b60405180910390fd5b565b6000600860009054906101000a900473ffffffffffffffffffffffffffffffffffffffff16905090565b828054620004c8906200083e565b90600052602060002090601f016020900481019282620004ec576000855562000538565b82601f106200050757805160ff191683800117855562000538565b8280016001018555821562000538579182015b82811115620005375782518255916020019190600101906200051a565b5b5090506200054791906200054b565b5090565b5b80821115620005665760008160009055506001016200054c565b5090565b6000604051905090565b600080fd5b600080fd5b600080fd5b600080fd5b6000601f19601f8301169050919050565b7f4e487b7100000000000000000000000000000000000000000000000000000000600052604160045260246000fd5b620005d38262000588565b810181811067ffffffffffffffff82111715620005f557620005f462000599565b5b80604052505050565b60006200060a6200056a565b9050620006188282620005c8565b919050565b600067ffffffffffffffff8211156200063b576200063a62000599565b5b620006468262000588565b9050602081019050919050565b60005b838110156200067357808201518184015260208101905062000656565b8381111562000683576000848401525b50505050565b6000620006a06200069a846200061d565b620005fe565b905082815260208101848484011115620006bf57620006be62000583565b5b620006cc84828562000653565b509392505050565b600082601f830112620006ec57620006eb6200057e565b5b8151620006fe84826020860162000689565b91505092915050565b6000806040838503121562000721576200072062000574565b5b600083015167ffffffffffffffff81111562000742576200074162000579565b5b6200075085828601620006d4565b925050602083015167ffffffffffffffff81111562000774576200077362000579565b5b6200078285828601620006d4565b9150509250929050565b600082825260208201905092915050565b7f4f776e61626c653a2063616c6c6572206973206e6f7420746865206f776e6572600082015250565b6000620007d56020836200078c565b9150620007e2826200079d565b602082019050919050565b600060208201905081810360008301526200080881620007c6565b9050919050565b7f4e487b7100000000000000000000000000000000000000000000000000000000600052602260045260246000fd5b600060028204905060018216806200085757607f821691505b602082108114156200086e576200086d6200080f565b5b50919050565b6146bf80620008846000396000f3fe6080604052600436106102675760003560e01c8063715018a611610144578063b88d4fde116100b6578063cfdbf2541161007a578063cfdbf254146108ce578063d344831c146108f9578063e985e9c514610915578063ecc99a1814610952578063f2c4ce1e1461097d578063f2fde38b146109a657610267565b8063b88d4fde146107e9578063c584342614610812578063c66828621461083b578063c87b56dd14610866578063cbfd14a2146108a357610267565b80639c51792a116101085780639c51792a1461070e578063a0712d6814610739578063a22cb46514610755578063a2e914771461077e578063a475b5dd146107a9578063b44102ca146107c057610267565b8063715018a61461063957806372250380146106505780637cb647591461067b5780638da5cb5b146106b857806395d89b41146106e357610267565b8063352567a2116101dd57806355f804b3116101a157806355f804b3146105175780635af46b4b14610540578063622db5fa146105695780636352211e146105945780636c0360eb146105d157806370a08231146105fc57610267565b8063352567a2146104565780633ccfd60b1461048157806342842e0e1461049857806346b64ef0146104c157806351830227146104ec57610267565b8063095ea7b31161022f578063095ea7b314610358578063165ca5581461038157806318160ddd146103ac57806323b872dd146103d75780632a47f799146104005780632f40e89f1461042b57610267565b806301ffc9a71461026c57806302693ef8146102a9578063061431a8146102d457806306fdde03146102f0578063081812fc1461031b575b600080fd5b34801561027857600080fd5b50610293600480360381019061028e91906132f4565b6109cf565b6040516102a0919061333c565b60405180910390f35b3480156102b557600080fd5b506102be610ab1565b6040516102cb9190613370565b60405180910390f35b6102ee60048036038101906102e99190613546565b610ab7565b005b3480156102fc57600080fd5b50610305610cce565b604051610312919061362a565b60405180910390f35b34801561032757600080fd5b50610342600480360381019061033d919061364c565b610d60565b60405161034f91906136ba565b60405180910390f35b34801561036457600080fd5b5061037f600480360381019061037a9190613701565b610ddc565b005b34801561038d57600080fd5b50610396610ee1565b6040516103a3919061333c565b60405180910390f35b3480156103b857600080fd5b506103c1610ef4565b6040516103ce9190613370565b60405180910390f35b3480156103e357600080fd5b506103fe60048036038101906103f99190613741565b610f0b565b005b34801561040c57600080fd5b50610415610f1b565b6040516104229190613370565b60405180910390f35b34801561043757600080fd5b50610440610f21565b60405161044d919061333c565b60405180910390f35b34801561046257600080fd5b5061046b610f34565b6040516104789190613370565b60405180910390f35b34801561048d57600080fd5b50610496610f3a565b005b3480156104a457600080fd5b506104bf60048036038101906104ba9190613741565b61117e565b005b3480156104cd57600080fd5b506104d661119e565b6040516104e39190613370565b60405180910390f35b3480156104f857600080fd5b506105016111a4565b60405161050e919061333c565b60405180910390f35b34801561052357600080fd5b5061053e60048036038101906105399190613849565b6111b7565b005b34801561054c57600080fd5b50610567600480360381019061056291906138be565b6111d9565b005b34801561057557600080fd5b5061057e61128b565b60405161058b9190613370565b60405180910390f35b3480156105a057600080fd5b506105bb60048036038101906105b6919061364c565b611290565b6040516105c891906136ba565b60405180910390f35b3480156105dd57600080fd5b506105e66112a6565b6040516105f3919061362a565b60405180910390f35b34801561060857600080fd5b50610623600480360381019061061e91906138eb565b611334565b6040516106309190613370565b60405180910390f35b34801561064557600080fd5b5061064e611404565b005b34801561065c57600080fd5b50610665611418565b604051610672919061362a565b60405180910390f35b34801561068757600080fd5b506106a2600480360381019061069d9190613918565b6114a6565b6040516106af9190613954565b60405180910390f35b3480156106c457600080fd5b506106cd6114c1565b6040516106da91906136ba565b60405180910390f35b3480156106ef57600080fd5b506106f86114eb565b604051610705919061362a565b60405180910390f35b34801561071a57600080fd5b5061072361157d565b6040516107309190613370565b60405180910390f35b610753600480360381019061074e919061364c565b611583565b005b34801561076157600080fd5b5061077c6004803603810190610777919061396f565b6116d8565b005b34801561078a57600080fd5b50610793611850565b6040516107a0919061333c565b60405180910390f35b3480156107b557600080fd5b506107be611863565b005b3480156107cc57600080fd5b506107e760048036038101906107e291906138be565b611888565b005b3480156107f557600080fd5b50610810600480360381019061080b9190613a50565b61193a565b005b34801561081e57600080fd5b50610839600480360381019061083491906138be565b6119b2565b005b34801561084757600080fd5b50610850611a64565b60405161085d919061362a565b60405180910390f35b34801561087257600080fd5b5061088d6004803603810190610888919061364c565b611af2565b60405161089a919061362a565b60405180910390f35b3480156108af57600080fd5b506108b8611c5d565b6040516108c59190613370565b60405180910390f35b3480156108da57600080fd5b506108e3611c63565b6040516108f09190613370565b60405180910390f35b610913600480360381019061090e919061364c565b611c69565b005b34801561092157600080fd5b5061093c60048036038101906109379190613ad3565b611d70565b604051610949919061333c565b60405180910390f35b34801561095e57600080fd5b50610967611e04565b6040516109749190613370565b60405180910390f35b34801561098957600080fd5b506109a4600480360381019061099f9190613849565b611e0a565b005b3480156109b257600080fd5b506109cd60048036038101906109c891906138eb565b611e2c565b005b60007f80ac58cd000000000000000000000000000000000000000000000000000000007bffffffffffffffffffffffffffffffffffffffffffffffffffffffff1916827bffffffffffffffffffffffffffffffffffffffffffffffffffffffff19161480610a9a57507f5b5e139f000000000000000000000000000000000000000000000000000000007bffffffffffffffffffffffffffffffffffffffffffffffffffffffff1916827bffffffffffffffffffffffffffffffffffffffffffffffffffffffff1916145b80610aaa5750610aa982611eb0565b5b9050919050565b60155481565b60011515610acd610ac733611f1a565b83611f4a565b151514610b0f576040517f08c379a0000000000000000000000000000000000000000000000000000000008152600401610b0690613b5f565b60405180910390fd5b6000610b1a33612002565b9050600083118015610b395750600d548382610b369190613bae565b11155b8015610b545750610dac83601554610b519190613bae565b11155b610b93576040517f08c379a0000000000000000000000000000000000000000000000000000000008152600401610b8a90613c50565b60405180910390fd5b600e60019054906101000a900460ff16610be2576040517f08c379a0000000000000000000000000000000000000000000000000000000008152600401610bd990613cbc565b60405180910390fd5b610bea6114c1565b73ffffffffffffffffffffffffffffffffffffffff163373ffffffffffffffffffffffffffffffffffffffff1614610c6d5782600a54610c2a9190613cdc565b341015610c6c576040517f08c379a0000000000000000000000000000000000000000000000000000000008152600401610c6390613d82565b60405180910390fd5b5b610c77338461206c565b8260156000828254610c899190613bae565b925050819055507f8075fa471a0151860e68405da9f14563af20737594a962dcea3556674453ccb9601554604051610cc19190613370565b60405180910390a1505050565b606060028054610cdd90613dd1565b80601f0160208091040260200160405190810160405280929190818152602001828054610d0990613dd1565b8015610d565780601f10610d2b57610100808354040283529160200191610d56565b820191906000526020600020905b815481529060010190602001808311610d3957829003601f168201915b5050505050905090565b6000610d6b8261208a565b610da1576040517fcf4700e400000000000000000000000000000000000000000000000000000000815260040160405180910390fd5b6006600083815260200190815260200160002060009054906101000a900473ffffffffffffffffffffffffffffffffffffffff169050919050565b6000610de782611290565b90508073ffffffffffffffffffffffffffffffffffffffff168373ffffffffffffffffffffffffffffffffffffffff161415610e4f576040517f943f7b8c00000000000000000000000000000000000000000000000000000000815260040160405180910390fd5b8073ffffffffffffffffffffffffffffffffffffffff16610e6e6120d8565b73ffffffffffffffffffffffffffffffffffffffff1614610ed157610e9a81610e956120d8565b611d70565b610ed0576040517fcfb3b94200000000000000000000000000000000000000000000000000000000815260040160405180910390fd5b5b610edc8383836120e0565b505050565b600e60019054906101000a900460ff1681565b6000610efe612192565b6001546000540303905090565b610f16838383612197565b505050565b61057881565b600e60009054906101000a900460ff1681565b610dac81565b610f4261264d565b60026009541415610f88576040517f08c379a0000000000000000000000000000000000000000000000000000000008152600401610f7f90613e4f565b60405180910390fd5b600260098190555060004711610fd3576040517f08c379a0000000000000000000000000000000000000000000000000000000008152600401610fca90613ebb565b60405180910390fd5b60004790506000611001600c610ff36064856126cb90919063ffffffff16565b6126e190919063ffffffff16565b9050600061102c600c61101e6064866126cb90919063ffffffff16565b6126e190919063ffffffff16565b905060006110558261104785876126f790919063ffffffff16565b6126f790919063ffffffff16565b9050601360009054906101000a900473ffffffffffffffffffffffffffffffffffffffff1673ffffffffffffffffffffffffffffffffffffffff166108fc849081150290604051600060405180830381858888f193505050501580156110bf573d6000803e3d6000fd5b50601460009054906101000a900473ffffffffffffffffffffffffffffffffffffffff1673ffffffffffffffffffffffffffffffffffffffff166108fc839081150290604051600060405180830381858888f19350505050158015611128573d6000803e3d6000fd5b503373ffffffffffffffffffffffffffffffffffffffff166108fc829081150290604051600060405180830381858888f1935050505015801561116f573d6000803e3d6000fd5b50505050506001600981905550565b6111998383836040518060200160405280600081525061193a565b505050565b60175481565b600e60039054906101000a900460ff1681565b6111bf61264d565b80601090805190602001906111d59291906131a2565b5050565b6111e161264d565b801515600e60029054906101000a900460ff1615151415611237576040517f08c379a000000000000000000000000000000000000000000000000000000000815260040161122e90613f27565b60405180910390fd5b80600e60026101000a81548160ff0219169083151502179055507fc2f34ac4d4e4272753586e1cbe726ed857aa2028d24b138c153671957acdd26081604051611280919061333c565b60405180910390a150565b606481565b600061129b8261270d565b600001519050919050565b601080546112b390613dd1565b80601f01602080910402602001604051908101604052809291908181526020018280546112df90613dd1565b801561132c5780601f106113015761010080835404028352916020019161132c565b820191906000526020600020905b81548152906001019060200180831161130f57829003601f168201915b505050505081565b60008073ffffffffffffffffffffffffffffffffffffffff168273ffffffffffffffffffffffffffffffffffffffff16141561139c576040517f8f4eb60400000000000000000000000000000000000000000000000000000000815260040160405180910390fd5b600560008373ffffffffffffffffffffffffffffffffffffffff1673ffffffffffffffffffffffffffffffffffffffff16815260200190815260200160002060000160009054906101000a900467ffffffffffffffff1667ffffffffffffffff169050919050565b61140c61264d565b6114166000612998565b565b6011805461142590613dd1565b80601f016020809104026020016040519081016040528092919081815260200182805461145190613dd1565b801561149e5780601f106114735761010080835404028352916020019161149e565b820191906000526020600020905b81548152906001019060200180831161148157829003601f168201915b505050505081565b60006114b061264d565b816012819055506012549050919050565b6000600860009054906101000a900473ffffffffffffffffffffffffffffffffffffffff16905090565b6060600380546114fa90613dd1565b80601f016020809104026020016040519081016040528092919081815260200182805461152690613dd1565b80156115735780601f1061154857610100808354040283529160200191611573565b820191906000526020600020905b81548152906001019060200180831161155657829003601f168201915b5050505050905090565b600b5481565b600e60029054906101000a900460ff166115d2576040517f08c379a00000000000000000000000000000000000000000000000000000000081526004016115c990613f93565b60405180910390fd5b610578816016546115e39190613bae565b1115611624576040517f08c379a000000000000000000000000000000000000000000000000000000000815260040161161b90613fff565b60405180910390fd5b61162c6114c1565b73ffffffffffffffffffffffffffffffffffffffff163373ffffffffffffffffffffffffffffffffffffffff16146116795780600b5461166c9190613cdc565b34101561167857600080fd5b5b611683338261206c565b80601660008282546116959190613bae565b925050819055507f9fb17e34d60ece1b56287d9fa45002656ff775dfd1937f856c4dc924fb8933536016546040516116cd9190613370565b60405180910390a150565b6116e06120d8565b73ffffffffffffffffffffffffffffffffffffffff168273ffffffffffffffffffffffffffffffffffffffff161415611745576040517fb06307db00000000000000000000000000000000000000000000000000000000815260040160405180910390fd5b80600760006117526120d8565b73ffffffffffffffffffffffffffffffffffffffff1673ffffffffffffffffffffffffffffffffffffffff16815260200190815260200160002060008473ffffffffffffffffffffffffffffffffffffffff1673ffffffffffffffffffffffffffffffffffffffff16815260200190815260200160002060006101000a81548160ff0219169083151502179055508173ffffffffffffffffffffffffffffffffffffffff166117ff6120d8565b73ffffffffffffffffffffffffffffffffffffffff167f17307eab39ab6107e8899845ad3d59bd9653f200f220920489ca2b5937696c3183604051611844919061333c565b60405180910390a35050565b600e60029054906101000a900460ff1681565b61186b61264d565b6001600e60036101000a81548160ff021916908315150217905550565b61189061264d565b801515600e60009054906101000a900460ff16151514156118e6576040517f08c379a00000000000000000000000000000000000000000000000000000000081526004016118dd9061406b565b60405180910390fd5b80600e60006101000a81548160ff0219169083151502179055507f416fb103f543fbe1b86c4e535f5ff225230a5ea316a120fa4883f3b853a933fe8160405161192f919061333c565b60405180910390a150565b611945848484612197565b6119648373ffffffffffffffffffffffffffffffffffffffff16612a5e565b156119ac5761197584848484612a81565b6119ab576040517fd1a57ed600000000000000000000000000000000000000000000000000000000815260040160405180910390fd5b5b50505050565b6119ba61264d565b801515600e60019054906101000a900460ff1615151415611a10576040517f08c379a0000000000000000000000000000000000000000000000000000000008152600401611a07906140d7565b60405180910390fd5b80600e60016101000a81548160ff0219169083151502179055507ff82ea957dfb15308328feac24a587791ffed3d789e7ed74d67e8a48b4df1cec381604051611a59919061333c565b60405180910390a150565b600f8054611a7190613dd1565b80601f0160208091040260200160405190810160405280929190818152602001828054611a9d90613dd1565b8015611aea5780601f10611abf57610100808354040283529160200191611aea565b820191906000526020600020905b815481529060010190602001808311611acd57829003601f168201915b505050505081565b6060611afd8261208a565b611b3c576040517f08c379a0000000000000000000000000000000000000000000000000000000008152600401611b3390614143565b60405180910390fd5b600060405180602001604052806000815250905060001515600e60039054906101000a900460ff1615151415611bfe5760118054611b7990613dd1565b80601f0160208091040260200160405190810160405280929190818152602001828054611ba590613dd1565b8015611bf25780601f10611bc757610100808354040283529160200191611bf2565b820191906000526020600020905b815481529060010190602001808311611bd557829003601f168201915b50505050509050611c09565b611c06612be1565b90505b6000815111611c275760405180602001604052806000815250611c55565b80611c3184612c73565b600f604051602001611c459392919061427f565b6040516020818303038152906040525b915050919050565b60165481565b600c5481565b611c7161264d565b600e60009054906101000a900460ff16611cc0576040517f08c379a0000000000000000000000000000000000000000000000000000000008152600401611cb790613f93565b60405180910390fd5b606481601754611cd09190613bae565b1115611d11576040517f08c379a0000000000000000000000000000000000000000000000000000000008152600401611d0890613fff565b60405180910390fd5b611d1b338261206c565b8060176000828254611d2d9190613bae565b925050819055507fa946ed3c42654f41409fe48b01e72aeaae38723e4d6e3c5982de7cea8c6b3b44601754604051611d659190613370565b60405180910390a150565b6000600760008473ffffffffffffffffffffffffffffffffffffffff1673ffffffffffffffffffffffffffffffffffffffff16815260200190815260200160002060008373ffffffffffffffffffffffffffffffffffffffff1673ffffffffffffffffffffffffffffffffffffffff16815260200190815260200160002060009054906101000a900460ff16905092915050565b600a5481565b611e1261264d565b8060119080519060200190611e289291906131a2565b5050565b611e3461264d565b600073ffffffffffffffffffffffffffffffffffffffff168173ffffffffffffffffffffffffffffffffffffffff161415611ea4576040517f08c379a0000000000000000000000000000000000000000000000000000000008152600401611e9b9061432d565b60405180910390fd5b611ead81612998565b50565b60007f01ffc9a7000000000000000000000000000000000000000000000000000000007bffffffffffffffffffffffffffffffffffffffffffffffffffffffff1916827bffffffffffffffffffffffffffffffffffffffffffffffffffffffff1916149050919050565b600081604051602001611f2d9190614395565b604051602081830303815290604052805190602001209050919050565b60008083905060005b8351811015611ff3576000848281518110611f7157611f706143b0565b5b6020026020010151905080831015611fb3578281604051602001611f96929190614400565b604051602081830303815290604052805190602001209250611fdf565b8083604051602001611fc6929190614400565b6040516020818303038152906040528051906020012092505b508080611feb9061442c565b915050611f53565b50601254811491505092915050565b6000600560008373ffffffffffffffffffffffffffffffffffffffff1673ffffffffffffffffffffffffffffffffffffffff16815260200190815260200160002060000160089054906101000a900467ffffffffffffffff1667ffffffffffffffff169050919050565b612086828260405180602001604052806000815250612dd4565b5050565b600081612095612192565b111580156120a4575060005482105b80156120d1575060046000838152602001908152602001600020600001601c9054906101000a900460ff16155b9050919050565b600033905090565b826006600084815260200190815260200160002060006101000a81548173ffffffffffffffffffffffffffffffffffffffff021916908373ffffffffffffffffffffffffffffffffffffffff160217905550818373ffffffffffffffffffffffffffffffffffffffff168273ffffffffffffffffffffffffffffffffffffffff167f8c5be1e5ebec7d5bd14f71427d1e84f3dd0314c0f7b2291e5b200ac8c7c3b92560405160405180910390a4505050565b600090565b60006121a28261270d565b90508373ffffffffffffffffffffffffffffffffffffffff16816000015173ffffffffffffffffffffffffffffffffffffffff161461220d576040517fa114810000000000000000000000000000000000000000000000000000000000815260040160405180910390fd5b60008473ffffffffffffffffffffffffffffffffffffffff1661222e6120d8565b73ffffffffffffffffffffffffffffffffffffffff16148061225d575061225c856122576120d8565b611d70565b5b806122a2575061226b6120d8565b73ffffffffffffffffffffffffffffffffffffffff1661228a84610d60565b73ffffffffffffffffffffffffffffffffffffffff16145b9050806122db576040517f59c896be00000000000000000000000000000000000000000000000000000000815260040160405180910390fd5b600073ffffffffffffffffffffffffffffffffffffffff168473ffffffffffffffffffffffffffffffffffffffff161415612342576040517fea553b3400000000000000000000000000000000000000000000000000000000815260040160405180910390fd5b61234f8585856001613196565b61235b600084876120e0565b6001600560008773ffffffffffffffffffffffffffffffffffffffff1673ffffffffffffffffffffffffffffffffffffffff16815260200190815260200160002060000160008282829054906101000a900467ffffffffffffffff160392506101000a81548167ffffffffffffffff021916908367ffffffffffffffff1602179055506001600560008673ffffffffffffffffffffffffffffffffffffffff1673ffffffffffffffffffffffffffffffffffffffff16815260200190815260200160002060000160008282829054906101000a900467ffffffffffffffff160192506101000a81548167ffffffffffffffff021916908367ffffffffffffffff1602179055506000600460008581526020019081526020016000209050848160000160006101000a81548173ffffffffffffffffffffffffffffffffffffffff021916908373ffffffffffffffffffffffffffffffffffffffff160217905550428160000160146101000a81548167ffffffffffffffff021916908367ffffffffffffffff16021790555060006001850190506000600460008381526020019081526020016000209050600073ffffffffffffffffffffffffffffffffffffffff168160000160009054906101000a900473ffffffffffffffffffffffffffffffffffffffff1673ffffffffffffffffffffffffffffffffffffffff1614156125db5760005482146125da57878160000160006101000a81548173ffffffffffffffffffffffffffffffffffffffff021916908373ffffffffffffffffffffffffffffffffffffffff16021790555084602001518160000160146101000a81548167ffffffffffffffff021916908367ffffffffffffffff1602179055505b5b505050828473ffffffffffffffffffffffffffffffffffffffff168673ffffffffffffffffffffffffffffffffffffffff167fddf252ad1be2c89b69c2b068fc378daa952ba7f163c4a11628f55a4df523b3ef60405160405180910390a4612646858585600161319c565b5050505050565b6126556120d8565b73ffffffffffffffffffffffffffffffffffffffff166126736114c1565b73ffffffffffffffffffffffffffffffffffffffff16146126c9576040517f08c379a00000000000000000000000000000000000000000000000000000000081526004016126c0906144c1565b60405180910390fd5b565b600081836126d99190614510565b905092915050565b600081836126ef9190613cdc565b905092915050565b600081836127059190614541565b905092915050565b612715613228565b600082905080612723612192565b1161296157600054811015612960576000600460008381526020019081526020016000206040518060600160405290816000820160009054906101000a900473ffffffffffffffffffffffffffffffffffffffff1673ffffffffffffffffffffffffffffffffffffffff1673ffffffffffffffffffffffffffffffffffffffff1681526020016000820160149054906101000a900467ffffffffffffffff1667ffffffffffffffff1667ffffffffffffffff16815260200160008201601c9054906101000a900460ff1615151515815250509050806040015161295e57600073ffffffffffffffffffffffffffffffffffffffff16816000015173ffffffffffffffffffffffffffffffffffffffff1614612842578092505050612993565b5b60011561295d57818060019003925050600460008381526020019081526020016000206040518060600160405290816000820160009054906101000a900473ffffffffffffffffffffffffffffffffffffffff1673ffffffffffffffffffffffffffffffffffffffff1673ffffffffffffffffffffffffffffffffffffffff1681526020016000820160149054906101000a900467ffffffffffffffff1667ffffffffffffffff1667ffffffffffffffff16815260200160008201601c9054906101000a900460ff1615151515815250509050600073ffffffffffffffffffffffffffffffffffffffff16816000015173ffffffffffffffffffffffffffffffffffffffff1614612958578092505050612993565b612843565b5b505b5b6040517fdf2d9b4200000000000000000000000000000000000000000000000000000000815260040160405180910390fd5b919050565b6000600860009054906101000a900473ffffffffffffffffffffffffffffffffffffffff16905081600860006101000a81548173ffffffffffffffffffffffffffffffffffffffff021916908373ffffffffffffffffffffffffffffffffffffffff1602179055508173ffffffffffffffffffffffffffffffffffffffff168173ffffffffffffffffffffffffffffffffffffffff167f8be0079c531659141344cd1fd0a4f28419497f9722a3daafe3b4186f6b6457e060405160405180910390a35050565b6000808273ffffffffffffffffffffffffffffffffffffffff163b119050919050565b60008373ffffffffffffffffffffffffffffffffffffffff1663150b7a02612aa76120d8565b8786866040518563ffffffff1660e01b8152600401612ac994939291906145ca565b602060405180830381600087803b158015612ae357600080fd5b505af1925050508015612b1457506040513d601f19601f82011682018060405250810190612b11919061462b565b60015b612b8e573d8060008114612b44576040519150601f19603f3d011682016040523d82523d6000602084013e612b49565b606091505b50600081511415612b86576040517fd1a57ed600000000000000000000000000000000000000000000000000000000815260040160405180910390fd5b805181602001fd5b63150b7a0260e01b7bffffffffffffffffffffffffffffffffffffffffffffffffffffffff1916817bffffffffffffffffffffffffffffffffffffffffffffffffffffffff191614915050949350505050565b606060108054612bf090613dd1565b80601f0160208091040260200160405190810160405280929190818152602001828054612c1c90613dd1565b8015612c695780601f10612c3e57610100808354040283529160200191612c69565b820191906000526020600020905b815481529060010190602001808311612c4c57829003601f168201915b5050505050905090565b60606000821415612cbb576040518060400160405280600181526020017f30000000000000000000000000000000000000000000000000000000000000008152509050612dcf565b600082905060005b60008214612ced578080612cd69061442c565b915050600a82612ce69190614510565b9150612cc3565b60008167ffffffffffffffff811115612d0957612d086133cd565b5b6040519080825280601f01601f191660200182016040528015612d3b5781602001600182028036833780820191505090505b5090505b60008514612dc857600182612d549190614541565b9150600a85612d639190614658565b6030612d6f9190613bae565b60f81b818381518110612d8557612d846143b0565b5b60200101907effffffffffffffffffffffffffffffffffffffffffffffffffffffffffffff1916908160001a905350600a85612dc19190614510565b9450612d3f565b8093505050505b919050565b600080549050600073ffffffffffffffffffffffffffffffffffffffff168473ffffffffffffffffffffffffffffffffffffffff161415612e41576040517f2e07630000000000000000000000000000000000000000000000000000000000815260040160405180910390fd5b6000831415612e7c576040517fb562e8dd00000000000000000000000000000000000000000000000000000000815260040160405180910390fd5b612e896000858386613196565b82600560008673ffffffffffffffffffffffffffffffffffffffff1673ffffffffffffffffffffffffffffffffffffffff16815260200190815260200160002060000160008282829054906101000a900467ffffffffffffffff160192506101000a81548167ffffffffffffffff021916908367ffffffffffffffff16021790555082600560008673ffffffffffffffffffffffffffffffffffffffff1673ffffffffffffffffffffffffffffffffffffffff16815260200190815260200160002060000160088282829054906101000a900467ffffffffffffffff160192506101000a81548167ffffffffffffffff021916908367ffffffffffffffff160217905550836004600083815260200190815260200160002060000160006101000a81548173ffffffffffffffffffffffffffffffffffffffff021916908373ffffffffffffffffffffffffffffffffffffffff160217905550426004600083815260200190815260200160002060000160146101000a81548167ffffffffffffffff021916908367ffffffffffffffff16021790555060008190506000848201905061304a8673ffffffffffffffffffffffffffffffffffffffff16612a5e565b1561310f575b818673ffffffffffffffffffffffffffffffffffffffff16600073ffffffffffffffffffffffffffffffffffffffff167fddf252ad1be2c89b69c2b068fc378daa952ba7f163c4a11628f55a4df523b3ef60405160405180910390a46130bf6000878480600101955087612a81565b6130f5576040517fd1a57ed600000000000000000000000000000000000000000000000000000000815260040160405180910390fd5b80821061305057826000541461310a57600080fd5b61317a565b5b818060010192508673ffffffffffffffffffffffffffffffffffffffff16600073ffffffffffffffffffffffffffffffffffffffff167fddf252ad1be2c89b69c2b068fc378daa952ba7f163c4a11628f55a4df523b3ef60405160405180910390a4808210613110575b816000819055505050613190600085838661319c565b50505050565b50505050565b50505050565b8280546131ae90613dd1565b90600052602060002090601f0160209004810192826131d05760008555613217565b82601f106131e957805160ff1916838001178555613217565b82800160010185558215613217579182015b828111156132165782518255916020019190600101906131fb565b5b509050613224919061326b565b5090565b6040518060600160405280600073ffffffffffffffffffffffffffffffffffffffff168152602001600067ffffffffffffffff1681526020016000151581525090565b5b8082111561328457600081600090555060010161326c565b5090565b6000604051905090565b600080fd5b600080fd5b60007fffffffff0000000000000000000000000000000000000000000000000000000082169050919050565b6132d18161329c565b81146132dc57600080fd5b50565b6000813590506132ee816132c8565b92915050565b60006020828403121561330a57613309613292565b5b6000613318848285016132df565b91505092915050565b60008115159050919050565b61333681613321565b82525050565b6000602082019050613351600083018461332d565b92915050565b6000819050919050565b61336a81613357565b82525050565b60006020820190506133856000830184613361565b92915050565b61339481613357565b811461339f57600080fd5b50565b6000813590506133b18161338b565b92915050565b600080fd5b6000601f19601f8301169050919050565b7f4e487b7100000000000000000000000000000000000000000000000000000000600052604160045260246000fd5b613405826133bc565b810181811067ffffffffffffffff82111715613424576134236133cd565b5b80604052505050565b6000613437613288565b905061344382826133fc565b919050565b600067ffffffffffffffff821115613463576134626133cd565b5b602082029050602081019050919050565b600080fd5b6000819050919050565b61348c81613479565b811461349757600080fd5b50565b6000813590506134a981613483565b92915050565b60006134c26134bd84613448565b61342d565b905080838252602082019050602084028301858111156134e5576134e4613474565b5b835b8181101561350e57806134fa888261349a565b8452602084019350506020810190506134e7565b5050509392505050565b600082601f83011261352d5761352c6133b7565b5b813561353d8482602086016134af565b91505092915050565b6000806040838503121561355d5761355c613292565b5b600061356b858286016133a2565b925050602083013567ffffffffffffffff81111561358c5761358b613297565b5b61359885828601613518565b9150509250929050565b600081519050919050565b600082825260208201905092915050565b60005b838110156135dc5780820151818401526020810190506135c1565b838111156135eb576000848401525b50505050565b60006135fc826135a2565b61360681856135ad565b93506136168185602086016135be565b61361f816133bc565b840191505092915050565b6000602082019050818103600083015261364481846135f1565b905092915050565b60006020828403121561366257613661613292565b5b6000613670848285016133a2565b91505092915050565b600073ffffffffffffffffffffffffffffffffffffffff82169050919050565b60006136a482613679565b9050919050565b6136b481613699565b82525050565b60006020820190506136cf60008301846136ab565b92915050565b6136de81613699565b81146136e957600080fd5b50565b6000813590506136fb816136d5565b92915050565b6000806040838503121561371857613717613292565b5b6000613726858286016136ec565b9250506020613737858286016133a2565b9150509250929050565b60008060006060848603121561375a57613759613292565b5b6000613768868287016136ec565b9350506020613779868287016136ec565b925050604061378a868287016133a2565b9150509250925092565b600080fd5b600067ffffffffffffffff8211156137b4576137b36133cd565b5b6137bd826133bc565b9050602081019050919050565b82818337600083830152505050565b60006137ec6137e784613799565b61342d565b90508281526020810184848401111561380857613807613794565b5b6138138482856137ca565b509392505050565b600082601f8301126138305761382f6133b7565b5b81356138408482602086016137d9565b91505092915050565b60006020828403121561385f5761385e613292565b5b600082013567ffffffffffffffff81111561387d5761387c613297565b5b6138898482850161381b565b91505092915050565b61389b81613321565b81146138a657600080fd5b50565b6000813590506138b881613892565b92915050565b6000602082840312156138d4576138d3613292565b5b60006138e2848285016138a9565b91505092915050565b60006020828403121561390157613900613292565b5b600061390f848285016136ec565b91505092915050565b60006020828403121561392e5761392d613292565b5b600061393c8482850161349a565b91505092915050565b61394e81613479565b82525050565b60006020820190506139696000830184613945565b92915050565b6000806040838503121561398657613985613292565b5b6000613994858286016136ec565b92505060206139a5858286016138a9565b9150509250929050565b600067ffffffffffffffff8211156139ca576139c96133cd565b5b6139d3826133bc565b9050602081019050919050565b60006139f36139ee846139af565b61342d565b905082815260208101848484011115613a0f57613a0e613794565b5b613a1a8482856137ca565b509392505050565b600082601f830112613a3757613a366133b7565b5b8135613a478482602086016139e0565b91505092915050565b60008060008060808587031215613a6a57613a69613292565b5b6000613a78878288016136ec565b9450506020613a89878288016136ec565b9350506040613a9a878288016133a2565b925050606085013567ffffffffffffffff811115613abb57613aba613297565b5b613ac787828801613a22565b91505092959194509250565b60008060408385031215613aea57613ae9613292565b5b6000613af8858286016136ec565b9250506020613b09858286016136ec565b9150509250929050565b7f494e56414c49445f414444524553530000000000000000000000000000000000600082015250565b6000613b49600f836135ad565b9150613b5482613b13565b602082019050919050565b60006020820190508181036000830152613b7881613b3c565b9050919050565b7f4e487b7100000000000000000000000000000000000000000000000000000000600052601160045260246000fd5b6000613bb982613357565b9150613bc483613357565b9250827fffffffffffffffffffffffffffffffffffffffffffffffffffffffffffffffff03821115613bf957613bf8613b7f565b5b828201905092915050565b7f434f554e545f494e56414c494400000000000000000000000000000000000000600082015250565b6000613c3a600d836135ad565b9150613c4582613c04565b602082019050919050565b60006020820190508181036000830152613c6981613c2d565b9050919050565b7f50524553414c455f4e4f545f5354415254454400000000000000000000000000600082015250565b6000613ca66013836135ad565b9150613cb182613c70565b602082019050919050565b60006020820190508181036000830152613cd581613c99565b9050919050565b6000613ce782613357565b9150613cf283613357565b9250817fffffffffffffffffffffffffffffffffffffffffffffffffffffffffffffffff0483118215151615613d2b57613d2a613b7f565b5b828202905092915050565b7f504f4f525f4d4f4e455900000000000000000000000000000000000000000000600082015250565b6000613d6c600a836135ad565b9150613d7782613d36565b602082019050919050565b60006020820190508181036000830152613d9b81613d5f565b9050919050565b7f4e487b7100000000000000000000000000000000000000000000000000000000600052602260045260246000fd5b60006002820490506001821680613de957607f821691505b60208210811415613dfd57613dfc613da2565b5b50919050565b7f5265656e7472616e637947756172643a207265656e7472616e742063616c6c00600082015250565b6000613e39601f836135ad565b9150613e4482613e03565b602082019050919050565b60006020820190508181036000830152613e6881613e2c565b9050919050565b7f454d5054595f42414c414e434500000000000000000000000000000000000000600082015250565b6000613ea5600d836135ad565b9150613eb082613e6f565b602082019050919050565b60006020820190508181036000830152613ed481613e98565b9050919050565b7f5055424c49435f53414c455f535441525445445f414c52454144595f53455400600082015250565b6000613f11601f836135ad565b9150613f1c82613edb565b602082019050919050565b60006020820190508181036000830152613f4081613f04565b9050919050565b7f4d494e545f4e4f545f5354415254454400000000000000000000000000000000600082015250565b6000613f7d6010836135ad565b9150613f8882613f47565b602082019050919050565b60006020820190508181036000830152613fac81613f70565b9050919050565b7f4d41585f535550504c595f524541434845440000000000000000000000000000600082015250565b6000613fe96012836135ad565b9150613ff482613fb3565b602082019050919050565b6000602082019050818103600083015261401881613fdc565b9050919050565b7f45585452415f53414c455f535441525445445f414c52454144595f5345540000600082015250565b6000614055601e836135ad565b91506140608261401f565b602082019050919050565b6000602082019050818103600083015261408481614048565b9050919050565b7f505249564154455f53414c455f535441525445445f414c52454144595f534554600082015250565b60006140c16020836135ad565b91506140cc8261408b565b602082019050919050565b600060208201905081810360008301526140f0816140b4565b9050919050565b7f546f6b656e20646f6573206e6f74206578697374000000000000000000000000600082015250565b600061412d6014836135ad565b9150614138826140f7565b602082019050919050565b6000602082019050818103600083015261415c81614120565b9050919050565b600081905092915050565b6000614179826135a2565b6141838185614163565b93506141938185602086016135be565b80840191505092915050565b7f2f00000000000000000000000000000000000000000000000000000000000000600082015250565b60006141d5600183614163565b91506141e08261419f565b600182019050919050565b60008190508160005260206000209050919050565b6000815461420d81613dd1565b6142178186614163565b94506001821660008114614232576001811461424357614276565b60ff19831686528186019350614276565b61424c856141eb565b60005b8381101561426e5781548189015260018201915060208101905061424f565b838801955050505b50505092915050565b600061428b828661416e565b9150614296826141c8565b91506142a2828561416e565b91506142ae8284614200565b9150819050949350505050565b7f4f776e61626c653a206e6577206f776e657220697320746865207a65726f206160008201527f6464726573730000000000000000000000000000000000000000000000000000602082015250565b60006143176026836135ad565b9150614322826142bb565b604082019050919050565b600060208201905081810360008301526143468161430a565b9050919050565b60008160601b9050919050565b60006143658261434d565b9050919050565b60006143778261435a565b9050919050565b61438f61438a82613699565b61436c565b82525050565b60006143a1828461437e565b60148201915081905092915050565b7f4e487b7100000000000000000000000000000000000000000000000000000000600052603260045260246000fd5b6000819050919050565b6143fa6143f582613479565b6143df565b82525050565b600061440c82856143e9565b60208201915061441c82846143e9565b6020820191508190509392505050565b600061443782613357565b91507fffffffffffffffffffffffffffffffffffffffffffffffffffffffffffffffff82141561446a57614469613b7f565b5b600182019050919050565b7f4f776e61626c653a2063616c6c6572206973206e6f7420746865206f776e6572600082015250565b60006144ab6020836135ad565b91506144b682614475565b602082019050919050565b600060208201905081810360008301526144da8161449e565b9050919050565b7f4e487b7100000000000000000000000000000000000000000000000000000000600052601260045260246000fd5b600061451b82613357565b915061452683613357565b925082614536576145356144e1565b5b828204905092915050565b600061454c82613357565b915061455783613357565b92508282101561456a57614569613b7f565b5b828203905092915050565b600081519050919050565b600082825260208201905092915050565b600061459c82614575565b6145a68185614580565b93506145b68185602086016135be565b6145bf816133bc565b840191505092915050565b60006080820190506145df60008301876136ab565b6145ec60208301866136ab565b6145f96040830185613361565b818103606083015261460b8184614591565b905095945050505050565b600081519050614625816132c8565b92915050565b60006020828403121561464157614640613292565b5b600061464f84828501614616565b91505092915050565b600061466382613357565b915061466e83613357565b92508261467e5761467d6144e1565b5b82820690509291505056fea264697066735822122090bf8e59b273da04093ec468b300e68cf5cacdcfc475520c143b0dee71f0730e64736f6c63430008090033",
  "linkReferences": {},
  "deployedLinkReferences": {}
}